:020000004F2887
:10000800DF00030E8301A1000A08A2008A010B1C6D
:100018003C288312851A1228201013282014A018AF
:10002800172850101828501420181C2803141D28AD
:100038000310501C2328031C232850142428501074
:100048000B192828031029280314501C2F28031CD7
:100058002F28501430285010501C36288312103086
:1000680085060B1120183A28A0103B28A0140B1065
:0E00780022088A00210E8300DF0E5F0E0900B1
:1000860082308312DC00DD30DD00DD0B4828DC0B1E
:080096004828000000000800EA
:10009E0007308312990083169F01051283120512F1
:1000AE008316851696168B158B1783129010901645
:1000BE0010121014A01443208316811283120C1CEC
:0E00CE006C288F018E010C10640065286D28CF
:02400E00DC31A3
:00000001FF
