:100000001DC02CC0C5C02AC029C078C027C026C0CA
:1000100025C024C023C022C021C020C01FC00102AF
:10002000000004000000000038000000000037005D
:1000300002020202020201020408102011241FBE63
:10004000CFE5D2E0DEBFCDBF20E0A0E6B0E001C04A
:100050001D92AA36B207E1F7CAD018C1D1CF87FFE7
:1000600009C08F7771F1813071F1823071F1833085
:1000700071F18FEF90E0FC01E25EFF4F3491FC01E3
:10008000EA5CFF4F2491FC01E05DFF4FE491EE2319
:10009000B9F0332329F03130E1F48AB58F778ABD86
:1000A000F0E0EE0FFF1FEC5DFF4FA591B4918FB70D
:1000B000611120C0F894EC9120952E232C938FBFD2
:1000C000089585E0D7CF82E0D5CF84E0D3CF83E019
:1000D000D1CF323019F48AB58F7DE1CF333021F49E
:1000E00080B78F7D80BFDCCF3430D1F68CB58F7D6B
:1000F0008CBDD6CFF894EC912E2BE0CF1F920F92AF
:100100000FB60F9211242F933F938F939F93AF932A
:10011000BF938091660090916700A0916800B091B4
:1001200069003091650026E0230F2D3768F129E83A
:10013000230F0396A11DB11D2093650080936600D7
:1001400090936700A0936800B0936900809161006C
:1001500090916200A0916300B09164000196A11D8E
:10016000B11D8093610090936200A0936300B093EF
:100170006400BF91AF919F918F913F912F910F900C
:100180000FBE0F901F9018950296A11DB11DD4CFE0
:100190001F920F920FB60F9211242F933F934F93FC
:1001A0005F936F937F938F939F93AF93BF93EF93DF
:1001B000FF93B39B07C09091600081E0911180E0B4
:1001C000809360006091600084E049DFFF91EF91CF
:1001D000BF91AF919F918F917F916F915F914F915F
:1001E0003F912F910F900FBE0F901F90189581B7E0
:1001F00081BF8AB582608ABD8AB581608ABD83B7B6
:10020000887F836083BF789489B7826089BF80B715
:10021000807F80BF80B7806880BF80B7806480BFE8
:100220008CB580648CBD8FEF8DBD80B7876080BF3B
:1002300086B18877866886B9379AF894EAE3F0E061
:100240002491E4E3F0E08491882399F090E0880F12
:10025000991FFC01E65DFF4FA591B491FC01EC5D97
:10026000FF4F859194918FB7F894EC91E22BEC932A
:100270008FBF60E084E0F3DE10926000AB9A8BB732
:1002800080628BBFBB98C39A7894FFCFF894FFCF5E
:00000001FF
